{
  "contractName": "DAO",
  "abi": [
    {
      "inputs": [
        {
          "internalType": "uint256",
          "name": "_contributionTime",
          "type": "uint256"
        },
        {
          "internalType": "uint256",
          "name": "_voteTime",
          "type": "uint256"
        },
        {
          "internalType": "uint256",
          "name": "_quorum",
          "type": "uint256"
        }
      ],
      "stateMutability": "nonpayable",
      "type": "constructor"
    },
    {
      "inputs": [],
      "name": "admin",
      "outputs": [
        {
          "internalType": "address",
          "name": "",
          "type": "address"
        }
      ],
      "stateMutability": "view",
      "type": "function"
    },
    {
      "inputs": [],
      "name": "availableFunds",
      "outputs": [
        {
          "internalType": "uint256",
          "name": "",
          "type": "uint256"
        }
      ],
      "stateMutability": "view",
      "type": "function"
    },
    {
      "inputs": [],
      "name": "contributionEnd",
      "outputs": [
        {
          "internalType": "uint256",
          "name": "",
          "type": "uint256"
        }
      ],
      "stateMutability": "view",
      "type": "function"
    },
    {
      "inputs": [
        {
          "internalType": "address",
          "name": "",
          "type": "address"
        }
      ],
      "name": "investors",
      "outputs": [
        {
          "internalType": "bool",
          "name": "",
          "type": "bool"
        }
      ],
      "stateMutability": "view",
      "type": "function"
    },
    {
      "inputs": [],
      "name": "nextProposalId",
      "outputs": [
        {
          "internalType": "uint256",
          "name": "",
          "type": "uint256"
        }
      ],
      "stateMutability": "view",
      "type": "function"
    },
    {
      "inputs": [
        {
          "internalType": "uint256",
          "name": "",
          "type": "uint256"
        }
      ],
      "name": "proposals",
      "outputs": [
        {
          "internalType": "uint256",
          "name": "id",
          "type": "uint256"
        },
        {
          "internalType": "string",
          "name": "name",
          "type": "string"
        },
        {
          "internalType": "uint256",
          "name": "amount",
          "type": "uint256"
        },
        {
          "internalType": "address payable",
          "name": "recipient",
          "type": "address"
        },
        {
          "internalType": "uint256",
          "name": "votes",
          "type": "uint256"
        },
        {
          "internalType": "uint256",
          "name": "end",
          "type": "uint256"
        },
        {
          "internalType": "bool",
          "name": "executed",
          "type": "bool"
        }
      ],
      "stateMutability": "view",
      "type": "function"
    },
    {
      "inputs": [],
      "name": "quorum",
      "outputs": [
        {
          "internalType": "uint256",
          "name": "",
          "type": "uint256"
        }
      ],
      "stateMutability": "view",
      "type": "function"
    },
    {
      "inputs": [
        {
          "internalType": "address",
          "name": "",
          "type": "address"
        }
      ],
      "name": "shares",
      "outputs": [
        {
          "internalType": "uint256",
          "name": "",
          "type": "uint256"
        }
      ],
      "stateMutability": "view",
      "type": "function"
    },
    {
      "inputs": [],
      "name": "totalShares",
      "outputs": [
        {
          "internalType": "uint256",
          "name": "",
          "type": "uint256"
        }
      ],
      "stateMutability": "view",
      "type": "function"
    },
    {
      "inputs": [],
      "name": "voteTime",
      "outputs": [
        {
          "internalType": "uint256",
          "name": "",
          "type": "uint256"
        }
      ],
      "stateMutability": "view",
      "type": "function"
    },
    {
      "inputs": [
        {
          "internalType": "address",
          "name": "",
          "type": "address"
        },
        {
          "internalType": "uint256",
          "name": "",
          "type": "uint256"
        }
      ],
      "name": "votes",
      "outputs": [
        {
          "internalType": "bool",
          "name": "",
          "type": "bool"
        }
      ],
      "stateMutability": "view",
      "type": "function"
    },
    {
      "stateMutability": "payable",
      "type": "receive"
    },
    {
      "inputs": [],
      "name": "contribute",
      "outputs": [],
      "stateMutability": "payable",
      "type": "function"
    },
    {
      "inputs": [
        {
          "internalType": "uint256",
          "name": "_amount",
          "type": "uint256"
        }
      ],
      "name": "redeemShare",
      "outputs": [],
      "stateMutability": "nonpayable",
      "type": "function"
    },
    {
      "inputs": [
        {
          "internalType": "uint256",
          "name": "_amount",
          "type": "uint256"
        },
        {
          "internalType": "address",
          "name": "_to",
          "type": "address"
        }
      ],
      "name": "transferShare",
      "outputs": [],
      "stateMutability": "nonpayable",
      "type": "function"
    },
    {
      "inputs": [
        {
          "internalType": "string",
          "name": "_name",
          "type": "string"
        },
        {
          "internalType": "uint256",
          "name": "_amount",
          "type": "uint256"
        },
        {
          "internalType": "address payable",
          "name": "_recipient",
          "type": "address"
        }
      ],
      "name": "createProposal",
      "outputs": [],
      "stateMutability": "nonpayable",
      "type": "function"
    },
    {
      "inputs": [
        {
          "internalType": "uint256",
          "name": "_amount",
          "type": "uint256"
        },
        {
          "internalType": "address payable",
          "name": "_to",
          "type": "address"
        }
      ],
      "name": "withdraw",
      "outputs": [],
      "stateMutability": "nonpayable",
      "type": "function"
    },
    {
      "inputs": [
        {
          "internalType": "uint256",
          "name": "_proposalId",
          "type": "uint256"
        }
      ],
      "name": "vote",
      "outputs": [],
      "stateMutability": "nonpayable",
      "type": "function"
    },
    {
      "inputs": [
        {
          "internalType": "uint256",
          "name": "_proposalId",
          "type": "uint256"
        }
      ],
      "name": "executeProposal",
      "outputs": [],
      "stateMutability": "nonpayable",
      "type": "function"
    }
  ],
  "bytecode": "0x60806040523480156200001157600080fd5b50604051620020a7380380620020a7833981810160405281019062000037919062000106565b600081118015620000485750606481105b6200008a576040517f08c379a000000000000000000000000000000000000000000000000000000000815260040162000081906200019e565b60405180910390fd5b8242620000989190620001d1565b6006819055508160088190555033600a60006101000a81548173ffffffffffffffffffffffffffffffffffffffff021916908373ffffffffffffffffffffffffffffffffffffffff16021790555050505062000281565b600081519050620001008162000267565b92915050565b6000806000606084860312156200011c57600080fd5b60006200012c86828701620000ef565b93505060206200013f86828701620000ef565b92505060406200015286828701620000ef565b9150509250925092565b60006200016b601c83620001c0565b91507f51756f72756d206d757374206265206265747765656e20302d313030000000006000830152602082019050919050565b60006020820190508181036000830152620001b9816200015c565b9050919050565b600082825260208201905092915050565b6000620001de826200022e565b9150620001eb836200022e565b9250827fffffffffffffffffffffffffffffffffffffffffffffffffffffffffffffffff0382111562000223576200022262000238565b5b828201905092915050565b6000819050919050565b7f4e487b7100000000000000000000000000000000000000000000000000000000600052601160045260246000fd5b62000272816200022e565b81146200027e57600080fd5b50565b611e1680620002916000396000f3fe608060405260043610610129576000357c0100000000000000000000000000000000000000000000000000000000900480636ac1e01f116100b2578063bcf93dd611610081578063bcf93dd6146103ad578063ce7c2ac2146103d8578063d151b51614610415578063d7bb99ba14610440578063f851a4401461044a57610149565b80636ac1e01f146102e15780636f7bc9be1461030a578063868643df146103475780639f2524ee1461037057610149565b80630d61b519116100f95780630d61b5191461020c5780631703a018146102355780632ab09d14146102605780633a98ef391461028b57806346fcff4c146102b657610149565b8062f714ce1461014e5780630121b93f14610177578063013cf08b146101a0578063039383e6146101e357610149565b366101495734600560008282546101409190611aa2565b92505081905550005b600080fd5b34801561015a57600080fd5b5061017560048036038101906101709190611409565b610475565b005b34801561018357600080fd5b5061019e600480360381019061019991906113a4565b610513565b005b3480156101ac57600080fd5b506101c760048036038101906101c291906113a4565b610704565b6040516101da97969594939291906119af565b60405180910390f35b3480156101ef57600080fd5b5061020a600480360381019061020591906113cd565b6107fb565b005b34801561021857600080fd5b50610233600480360381019061022e91906113a4565b610984565b005b34801561024157600080fd5b5061024a610b62565b6040516102579190611994565b60405180910390f35b34801561026c57600080fd5b50610275610b68565b6040516102829190611994565b60405180910390f35b34801561029757600080fd5b506102a0610b6e565b6040516102ad9190611994565b60405180910390f35b3480156102c257600080fd5b506102cb610b74565b6040516102d89190611994565b60405180910390f35b3480156102ed57600080fd5b506103086004803603810190610303919061133d565b610b7a565b005b34801561031657600080fd5b50610331600480360381019061032c91906112d8565b610da7565b60405161033e9190611839565b60405180910390f35b34801561035357600080fd5b5061036e600480360381019061036991906113a4565b610dc7565b005b34801561037c57600080fd5b5061039760048036038101906103929190611301565b610f47565b6040516103a49190611839565b60405180910390f35b3480156103b957600080fd5b506103c2610f76565b6040516103cf9190611994565b60405180910390f35b3480156103e457600080fd5b506103ff60048036038101906103fa91906112d8565b610f7c565b60405161040c9190611994565b60405180910390f35b34801561042157600080fd5b5061042a610f94565b6040516104379190611994565b60405180910390f35b610448610f9a565b005b34801561045657600080fd5b5061045f6110bf565b60405161046c919061181e565b60405180910390f35b600a60009054906101000a900473ffffffffffffffffffffffffffffffffffffffff1673ffffffffffffffffffffffffffffffffffffffff163373ffffffffffffffffffffffffffffffffffffffff1614610505576040517f08c379a00000000000000000000000000000000000000000000000000000000081526004016104fc906118d4565b60405180910390fd5b61050f82826110e5565b5050565b600115156000803373ffffffffffffffffffffffffffffffffffffffff1673ffffffffffffffffffffffffffffffffffffffff16815260200190815260200160002060009054906101000a900460ff161515146105a5576040517f08c379a000000000000000000000000000000000000000000000000000000000815260040161059c90611974565b60405180910390fd5b600060036000838152602001908152602001600020905060001515600260003373ffffffffffffffffffffffffffffffffffffffff1673ffffffffffffffffffffffffffffffffffffffff168152602001908152602001600020600084815260200190815260200160002060009054906101000a900460ff16151514610660576040517f08c379a000000000000000000000000000000000000000000000000000000000815260040161065790611954565b60405180910390fd5b806005015442106106a6576040517f08c379a000000000000000000000000000000000000000000000000000000000815260040161069d90611934565b60405180910390fd5b600160003373ffffffffffffffffffffffffffffffffffffffff1673ffffffffffffffffffffffffffffffffffffffff168152602001908152602001600020548160040160008282546106f99190611aa2565b925050819055505050565b600360205280600052604060002060009150905080600001549080600101805461072d90611c53565b80601f016020809104026020016040519081016040528092919081815260200182805461075990611c53565b80156107a65780601f1061077b576101008083540402835291602001916107a6565b820191906000526020600020905b81548152906001019060200180831161078957829003601f168201915b5050505050908060020154908060030160009054906101000a900473ffffffffffffffffffffffffffffffffffffffff16908060040154908060050154908060060160009054906101000a900460ff16905087565b81600160003373ffffffffffffffffffffffffffffffffffffffff1673ffffffffffffffffffffffffffffffffffffffff16815260200190815260200160002054101561087d576040517f08c379a000000000000000000000000000000000000000000000000000000000815260040161087490611854565b60405180910390fd5b81600160003373ffffffffffffffffffffffffffffffffffffffff1673ffffffffffffffffffffffffffffffffffffffff16815260200190815260200160002060008282546108cc9190611b83565b9250508190555081600160008373ffffffffffffffffffffffffffffffffffffffff1673ffffffffffffffffffffffffffffffffffffffff16815260200190815260200160002060008282546109229190611aa2565b9250508190555060016000808373ffffffffffffffffffffffffffffffffffffffff1673ffffffffffffffffffffffffffffffffffffffff16815260200190815260200160002060006101000a81548160ff0219169083151502179055505050565b600a60009054906101000a900473ffffffffffffffffffffffffffffffffffffffff1673ffffffffffffffffffffffffffffffffffffffff163373ffffffffffffffffffffffffffffffffffffffff1614610a14576040517f08c379a0000000000000000000000000000000000000000000000000000000008152600401610a0b906118d4565b60405180910390fd5b60006003600083815260200190815260200160002090508060050154421015610a72576040517f08c379a0000000000000000000000000000000000000000000000000000000008152600401610a6990611874565b60405180910390fd5b600015158160060160009054906101000a900460ff16151514610aca576040517f08c379a0000000000000000000000000000000000000000000000000000000008152600401610ac190611914565b60405180910390fd5b60095460646004548360020154610ae19190611af8565b610aeb9190611b29565b1015610b2c576040517f08c379a0000000000000000000000000000000000000000000000000000000008152600401610b2390611894565b60405180910390fd5b610b5e81600201548260030160009054906101000a900473ffffffffffffffffffffffffffffffffffffffff166110e5565b5050565b60095481565b60075481565b60045481565b60055481565b600115156000803373ffffffffffffffffffffffffffffffffffffffff1673ffffffffffffffffffffffffffffffffffffffff16815260200190815260200160002060009054906101000a900460ff16151514610c0c576040517f08c379a0000000000000000000000000000000000000000000000000000000008152600401610c0390611974565b60405180910390fd5b816005541015610c51576040517f08c379a0000000000000000000000000000000000000000000000000000000008152600401610c48906118f4565b60405180910390fd5b6040518060e0016040528060075481526020018481526020018381526020018273ffffffffffffffffffffffffffffffffffffffff1681526020016000815260200160085442610ca19190611aa2565b815260200160001515815250600360006007548152602001908152602001600020600082015181600001556020820151816001019080519060200190610ce892919061118e565b506040820151816002015560608201518160030160006101000a81548173ffffffffffffffffffffffffffffffffffffffff021916908373ffffffffffffffffffffffffffffffffffffffff1602179055506080820151816004015560a0820151816005015560c08201518160060160006101000a81548160ff0219169083151502179055509050508160056000828254610d839190611b83565b9250508190555060076000815480929190610d9d90611c85565b9190505550505050565b60006020528060005260406000206000915054906101000a900460ff1681565b80600160003373ffffffffffffffffffffffffffffffffffffffff1673ffffffffffffffffffffffffffffffffffffffff168152602001908152602001600020541015610e49576040517f08c379a0000000000000000000000000000000000000000000000000000000008152600401610e4090611854565b60405180910390fd5b806005541015610e8e576040517f08c379a0000000000000000000000000000000000000000000000000000000008152600401610e85906118f4565b60405180910390fd5b80600160003373ffffffffffffffffffffffffffffffffffffffff1673ffffffffffffffffffffffffffffffffffffffff1681526020019081526020016000206000828254610edd9190611b83565b925050819055508060056000828254610ef69190611b83565b925050819055503373ffffffffffffffffffffffffffffffffffffffff166108fc829081150290604051600060405180830381858888f19350505050158015610f43573d6000803e3d6000fd5b5050565b60026020528160005260406000206020528060005260406000206000915091509054906101000a900460ff1681565b60085481565b60016020528060005260406000206000915090505481565b60065481565b6006544210610fde576040517f08c379a0000000000000000000000000000000000000000000000000000000008152600401610fd5906118b4565b60405180910390fd5b60016000803373ffffffffffffffffffffffffffffffffffffffff1673ffffffffffffffffffffffffffffffffffffffff16815260200190815260200160002060006101000a81548160ff02191690831515021790555034600160003373ffffffffffffffffffffffffffffffffffffffff1673ffffffffffffffffffffffffffffffffffffffff16815260200190815260200160002060008282546110849190611aa2565b92505081905550346004600082825461109d9190611aa2565b9250508190555034600560008282546110b69190611aa2565b92505081905550565b600a60009054906101000a900473ffffffffffffffffffffffffffffffffffffffff1681565b60055482111561112a576040517f08c379a0000000000000000000000000000000000000000000000000000000008152600401611121906118f4565b60405180910390fd5b816005600082825461113c9190611b83565b925050819055508073ffffffffffffffffffffffffffffffffffffffff166108fc839081150290604051600060405180830381858888f19350505050158015611189573d6000803e3d6000fd5b505050565b82805461119a90611c53565b90600052602060002090601f0160209004810192826111bc5760008555611203565b82601f106111d557805160ff1916838001178555611203565b82800160010185558215611203579182015b828111156112025782518255916020019190600101906111e7565b5b5090506112109190611214565b5090565b5b8082111561122d576000816000905550600101611215565b5090565b600061124461123f84611a56565b611a25565b90508281526020810184848401111561125c57600080fd5b611267848285611c11565b509392505050565b60008135905061127e81611d9b565b92915050565b60008135905061129381611db2565b92915050565b600082601f8301126112aa57600080fd5b81356112ba848260208601611231565b91505092915050565b6000813590506112d281611dc9565b92915050565b6000602082840312156112ea57600080fd5b60006112f88482850161126f565b91505092915050565b6000806040838503121561131457600080fd5b60006113228582860161126f565b9250506020611333858286016112c3565b9150509250929050565b60008060006060848603121561135257600080fd5b600084013567ffffffffffffffff81111561136c57600080fd5b61137886828701611299565b9350506020611389868287016112c3565b925050604061139a86828701611284565b9150509250925092565b6000602082840312156113b657600080fd5b60006113c4848285016112c3565b91505092915050565b600080604083850312156113e057600080fd5b60006113ee858286016112c3565b92505060206113ff8582860161126f565b9150509250929050565b6000806040838503121561141c57600080fd5b600061142a858286016112c3565b925050602061143b85828601611284565b9150509250929050565b61144e81611bc9565b82525050565b61145d81611bb7565b82525050565b61146c81611bdb565b82525050565b600061147d82611a86565b6114878185611a91565b9350611497818560208601611c20565b6114a081611d8a565b840191505092915050565b60006114b8601383611a91565b91507f496e73756666696369656e7420736861726573000000000000000000000000006000830152602082019050919050565b60006114f8601e83611a91565b91507f43616e6e6f742065786563757465206265666f726520656e64206461746500006000830152602082019050919050565b6000611538603283611a91565b91507f43616e206e6f7420657865637574652070726f706f73616c207769746820766f60008301527f74657320232062656c6f772071756f72756d00000000000000000000000000006020830152604082019050919050565b600061159e600e83611a91565b91507f44414f2068617320656e6465642e0000000000000000000000000000000000006000830152602082019050919050565b60006115de602483611a91565b91507f4d7573742062652061646d696e20746f2061636365737320746869732066656160008301527f74757265000000000000000000000000000000000000000000000000000000006020830152604082019050919050565b6000611644601283611a91565b91507f496e73756666696369656e742066756e647300000000000000000000000000006000830152602082019050919050565b6000611684603783611a91565b91507f43616e6e6f7420657865637574652070726f706f73616c73207468617420686160008301527f7320616c7265616479206265656e2065786563757465640000000000000000006020830152604082019050919050565b60006116ea602283611a91565b91507f43616e206f6e6c7920766f7465207768656e20706f6c6c696e67206973206f7060008301527f656e0000000000000000000000000000000000000000000000000000000000006020830152604082019050919050565b6000611750602883611a91565b91507f496e766573746f722063616e206f6e6c7920766f7465206f6e6365207065722060008301527f70726f706f73616c0000000000000000000000000000000000000000000000006020830152604082019050919050565b60006117b6602a83611a91565b91507f4d75737420626520616e20696e766573746f7220746f2061636365737320746860008301527f69732066656174757265000000000000000000000000000000000000000000006020830152604082019050919050565b61181881611c07565b82525050565b60006020820190506118336000830184611454565b92915050565b600060208201905061184e6000830184611463565b92915050565b6000602082019050818103600083015261186d816114ab565b9050919050565b6000602082019050818103600083015261188d816114eb565b9050919050565b600060208201905081810360008301526118ad8161152b565b9050919050565b600060208201905081810360008301526118cd81611591565b9050919050565b600060208201905081810360008301526118ed816115d1565b9050919050565b6000602082019050818103600083015261190d81611637565b9050919050565b6000602082019050818103600083015261192d81611677565b9050919050565b6000602082019050818103600083015261194d816116dd565b9050919050565b6000602082019050818103600083015261196d81611743565b9050919050565b6000602082019050818103600083015261198d816117a9565b9050919050565b60006020820190506119a9600083018461180f565b92915050565b600060e0820190506119c4600083018a61180f565b81810360208301526119d68189611472565b90506119e5604083018861180f565b6119f26060830187611445565b6119ff608083018661180f565b611a0c60a083018561180f565b611a1960c0830184611463565b98975050505050505050565b6000604051905081810181811067ffffffffffffffff82111715611a4c57611a4b611d5b565b5b8060405250919050565b600067ffffffffffffffff821115611a7157611a70611d5b565b5b601f19601f8301169050602081019050919050565b600081519050919050565b600082825260208201905092915050565b6000611aad82611c07565b9150611ab883611c07565b9250827fffffffffffffffffffffffffffffffffffffffffffffffffffffffffffffffff03821115611aed57611aec611cce565b5b828201905092915050565b6000611b0382611c07565b9150611b0e83611c07565b925082611b1e57611b1d611cfd565b5b828204905092915050565b6000611b3482611c07565b9150611b3f83611c07565b9250817fffffffffffffffffffffffffffffffffffffffffffffffffffffffffffffffff0483118215151615611b7857611b77611cce565b5b828202905092915050565b6000611b8e82611c07565b9150611b9983611c07565b925082821015611bac57611bab611cce565b5b828203905092915050565b6000611bc282611be7565b9050919050565b6000611bd482611be7565b9050919050565b60008115159050919050565b600073ffffffffffffffffffffffffffffffffffffffff82169050919050565b6000819050919050565b82818337600083830152505050565b60005b83811015611c3e578082015181840152602081019050611c23565b83811115611c4d576000848401525b50505050565b60006002820490506001821680611c6b57607f821691505b60208210811415611c7f57611c7e611d2c565b5b50919050565b6000611c9082611c07565b91507fffffffffffffffffffffffffffffffffffffffffffffffffffffffffffffffff821415611cc357611cc2611cce565b5b600182019050919050565b7f4e487b7100000000000000000000000000000000000000000000000000000000600052601160045260246000fd5b7f4e487b7100000000000000000000000000000000000000000000000000000000600052601260045260246000fd5b7f4e487b7100000000000000000000000000000000000000000000000000000000600052602260045260246000fd5b7f4e487b7100000000000000000000000000000000000000000000000000000000600052604160045260246000fd5b6000601f19601f8301169050919050565b611da481611bb7565b8114611daf57600080fd5b50565b611dbb81611bc9565b8114611dc657600080fd5b50565b611dd281611c07565b8114611ddd57600080fd5b5056fea2646970667358221220e107c9a556aad17b87d05ec4b82894bcb4e5f05a98767a66ef0dfd62490b381a64736f6c63430008000033",
  "immutableReferences": {},
  "source": "// SPDX-License-Identifier: MIT\npragma solidity ^0.8.0;\n\ncontract DAO {\n    struct Proposal {\n        uint256 id;\n        string name;\n        uint256 amount;\n        address payable recipient;\n        uint256 votes;\n        uint256 end;\n        bool executed;\n    }\n\n    // Keep track of investor's contribution as well as their shares\n    mapping(address => bool) public investors;\n    mapping(address => uint256) public shares;\n    mapping(address => mapping(uint256 => bool)) public votes;\n    mapping(uint256 => Proposal) public proposals;\n\n    uint256 public totalShares;\n    uint256 public availableFunds;\n    uint256 public contributionEnd;\n    uint256 public nextProposalId;\n    uint256 public voteTime;\n    uint256 public quorum;\n    address public admin;\n\n    constructor(\n        uint256 _contributionTime,\n        uint256 _voteTime,\n        uint256 _quorum\n    ) {\n        require(_quorum > 0 && _quorum < 100, \"Quorum must be between 0-100\");\n        contributionEnd = block.timestamp + _contributionTime;\n        voteTime = _voteTime;\n        admin = msg.sender;\n    }\n\n    function contribute() external payable {\n        require(block.timestamp < contributionEnd, \"DAO has ended.\");\n        investors[msg.sender] = true;\n        shares[msg.sender] += msg.value;\n        totalShares += msg.value;\n        availableFunds += msg.value;\n    }\n\n    function redeemShare(uint256 _amount) external {\n        require(shares[msg.sender] >= _amount, \"Insufficient shares\");\n        require(availableFunds >= _amount, \"Insufficient funds\");\n        shares[msg.sender] -= _amount;\n        availableFunds -= _amount;\n        payable(msg.sender).transfer(_amount);\n    }\n\n    function transferShare(uint256 _amount, address _to) external {\n        require(shares[msg.sender] >= _amount, \"Insufficient shares\");\n        shares[msg.sender] -= _amount;\n        shares[_to] += _amount;\n        investors[_to] = true;\n    }\n\n    modifier onlyAdmin() {\n        require(msg.sender == admin, \"Must be admin to access this feature\");\n        _;\n    }\n\n    modifier onlyInvestors() {\n        require(\n            investors[msg.sender] == true,\n            \"Must be an investor to access this feature\"\n        );\n        _;\n    }\n\n    receive() external payable {\n        availableFunds += msg.value;\n    }\n\n    function createProposal(\n        string memory _name,\n        uint256 _amount,\n        address payable _recipient\n    ) public onlyInvestors {\n        require(availableFunds >= _amount, \"Insufficient funds\");\n        proposals[nextProposalId] = Proposal(\n            nextProposalId,\n            _name,\n            _amount,\n            _recipient,\n            0,\n            block.timestamp + voteTime,\n            false\n        );\n        availableFunds -= _amount;\n        nextProposalId++;\n    }\n\n    function withdraw(uint256 _amount, address payable _to) external onlyAdmin {\n        _transferEther(_amount, _to);\n    }\n\n    function _transferEther(uint256 _amount, address payable _recipient)\n        internal\n    {\n        require(_amount <= availableFunds, \"Insufficient funds\");\n        availableFunds -= _amount;\n        _recipient.transfer(_amount);\n    }\n\n    function vote(uint256 _proposalId) external onlyInvestors {\n        Proposal storage proposal = proposals[_proposalId];\n        require(\n            votes[msg.sender][_proposalId] == false,\n            \"Investor can only vote once per proposal\"\n        );\n        require(\n            block.timestamp < proposal.end,\n            \"Can only vote when polling is open\"\n        );\n        proposal.votes += shares[msg.sender];\n    }\n\n    function executeProposal(uint256 _proposalId) external onlyAdmin {\n        Proposal storage proposal = proposals[_proposalId];\n        require(\n            block.timestamp >= proposal.end,\n            \"Cannot execute before end date\"\n        );\n        require(\n            proposal.executed == false,\n            \"Cannot execute proposals that has already been executed\"\n        );\n        require(\n            (proposal.amount / totalShares) * 100 >= quorum,\n            \"Can not execute proposal with votes # below quorum\"\n        );\n        _transferEther(proposal.amount, proposal.recipient);\n    }\n}\n",
  "sourcePath": "/Users/jasonha/Desktop/demos/smart_contracts/DAO/smart_contract/contracts/DAO.sol",
  "compiler": {
    "name": "solc",
    "version": "0.8.0+commit.c7dfd78e.Emscripten.clang"
  },
  "schemaVersion": "3.4.5",
  "updatedAt": "2022-03-01T21:28:21.486Z",
  "devdoc": {
    "kind": "dev",
    "methods": {},
    "version": 1
  },
  "userdoc": {
    "kind": "user",
    "methods": {},
    "version": 1
  }
}